:100000000C9463000C94B5020C94DC020C948B00ED
:100010000C948B000C948B000C948B000C94580265
:100020000C948B000C948B000C948B000C948B0024
:100030000C948B000C948B000C948B000C948B0014
:100040000C943A110C948B000C9467010C94990158
:100050000C948B000C948B000C948B000C948B00F4
:100060000C948B000C948B0002000000080002012D
:10007000000003040700000000000000000102046B
:10008000081020408001020408102001020408101A
:100090002004040404040404040202020202020311
:1000A00003030303030000000023002600290000CF
:1000B000000000250028002B00000000002400277D
:1000C000002A0000C90111241FBECFEFD8E0DEBF17
:1000D000CDBF12E0A0E0B1E0EAE8FCE202C005908A
:1000E0000D92AC39B107D9F725E0ACE9B2E001C017
:1000F0001D92A63DB207E1F710E0C3E6D0E004C0D0
:100100002197FE010E946315C236D107C9F70E94EC
:1001100026030C9443160C940000FC01918D228D53
:10012000892F90E0805C9F4F821B91098F739927E4
:100130000895FC01918D828D981731F0828DE80F22
:10014000F11D858D90E008958FEF9FEF0895FC01DC
:10015000918D828D981761F0A28DAE0FBF2FB11DCA
:100160005D968C91928D9F5F9F73928F90E0089522
:100170008FEF9FEF0895FC01538D448D252F30E0C4
:10018000842F90E0821B930B541710F0CF960895A4
:10019000019708958FEB91E0892B49F080E090E082
:1001A000892B29F00E94BF0181110C940000089551
:1001B000FC01A48DA80FB92FB11DA35ABF4F2C91DC
:1001C000848D90E001968F739927848FA689B789D3
:1001D0002C93A089B1898C91837080648C93938DCA
:1001E000848D981306C00288F389E02D80818F7D6D
:1001F00080830895CF93DF93EC01888D8823B9F035
:10020000AA89BB89E889F9898C9185FD03C0808121
:1002100086FD0DC00FB607FCF7CF8C9185FFF2CF9E
:10022000808185FFEDCFCE010E94D800E9CFDF911C
:10023000CF910895EF92FF920F931F93CF93DF9387
:10024000EC0181E0888F9B8D8C8D98131AC0E88912
:10025000F989808185FF15C09FB7F894EE89FF89E1
:100260006083E889F98980818370806480839FBF7F
:1002700081E090E0DF91CF911F910F91FF90EF907F
:100280000895F62E0B8D10E00F5F1F4F0F7311278F
:10029000E02E8C8D8E110CC00FB607FCFACFE889CA
:1002A000F989808185FFF5CFCE010E94D800F1CF7A
:1002B000EB8DEC0FFD2FF11DE35AFF4FF0829FB73E
:1002C000F8940B8FEA89FB8980818062CFCF1F92DF
:1002D0000F920FB60F9211242F938F939F93EF934A
:1002E000FF93E091AC02F091AD028081E091B20207
:1002F000F091B30282FD1BC090818091B5028F5FA7
:100300008F732091B602821741F0E091B502F0E0C0
:10031000E456FD4F958F8093B502FF91EF919F9129
:100320008F912F910F900FBE0F901F901895808185
:10033000F4CF1F920F920FB60F9211242F933F9379
:100340004F935F936F937F938F939F93AF93BF93DD
:10035000EF93FF938CE992E00E94D800FF91EF9118
:10036000BF91AF919F918F917F916F915F914F91CD
:100370003F912F910F900FBE0F901F9018958CE911
:1003800092E00E948D0021E0892B09F420E0822F69
:100390000895ECE9F2E01382128288EE93E0A0E087
:1003A000B0E084839583A683B78380E792E091834E
:1003B000808385EC90E09587848784EC90E0978734
:1003C000868780EC90E0918B808B81EC90E0938B22
:1003D000828B82EC90E0958B848B86EC90E0978BFF
:1003E000868B118E128E138E148E0895AF92BF924B
:1003F000CF92DF92EF92FF920F931F93CF93DF93F1
:100400006C017B018B01040F151FEB015E01AE181F
:10041000BF08C017D10759F06991D601ED91FC9141
:100420000190F081E02DC6010995892B79F7C5016E
:10043000DF91CF911F910F91FF90EF90DF90CF90C0
:10044000BF90AF900895813039F018F0823051F0AC
:10045000089510926E00089580916F008D7F8093B3
:100460006F000895809170008D7F8093700081E00F
:100470008093B0008091B100887F84608093B10048
:100480001092B3000895CF93C82F80910401C81330
:100490000DC0E8E6F0E084919FEF909304010E9484
:1004A000230260E08C2FCF910C9470128FEFF7CF66
:1004B0001F920F920FB60F9211242F933F934F93D9
:1004C0005F936F937F938F939F93AF93BF93EF93BC
:1004D000FF9380913C0390913D03A0913E03B09126
:1004E0003F03892B8A2B8B2BD1F190913903E0911B
:1004F0003A03F0913B0380818927808380913C03FC
:1005000090913D03A0913E03B0913F031816190648
:100510001A061B069CF480913C0390913D03A09128
:100520003E03B0913F030197A109B10980933C03B9
:1005300090933D03A0933E03B0933F03FF91EF914F
:10054000BF91AF919F918F917F916F915F914F91EB
:100550003F912F910F900FBE0F901F901895809193
:1005600004010E944302EACF08951F920F920FB632
:100570000F9211242F933F934F935F936F937F9329
:100580008F939F93AF93BF93EF93FF93E0910501F8
:10059000F09106010995FF91EF91BF91AF919F9165
:1005A0008F917F916F915F914F913F912F910F901C
:1005B0000FBE0F901F9018951F920F920FB60F92BB
:1005C00011242F933F934F935F936F937F938F9358
:1005D0009F93AF93BF93EF93FF93E0910701F09147
:1005E00008010995FF91EF91BF91AF919F918F9174
:1005F0007F916F915F914F913F912F910F900FBE1F
:100600000F901F901895611571058105910511F0E6
:100610000C943A160895CF92DF92EF92FF926B01FD
:100620007C01C114D104E104F10441F00E94EB15F6
:10063000A70196010E9444156B017C01C701B60118
:10064000FF90EF90DF90CF90089508950E94B5112C
:100650000E9425030E942710CAECD0E00E943710A8
:100660002097E1F30E94CA00F9CF61E08AE00E947E
:10067000341261E08BE00E94341261E083E00E945A
:10068000341283E28093800089E08093810010928D
:100690008B0010928A0083EA8093B00081E08093FF
:1006A000B1001092B3001092B40008950F931F93FD
:1006B000CF93DF938A01D62FC72FDC0158979A0179
:1006C000462F572F0E9474152CE330E040E050E095
:1006D0000E94441557FF03C020E030E0A901B80193
:1006E0008D2F9C2F261737074807590714F4CA0186
:1006F000B901DF91CF911F910F9108954FEF53E012
:1007000060E070E00E94560370938B0060938A0053
:1007100008954FEF50E060E070E00E945603609350
:10072000B30008956CE070E00E940E1597FD0C96E2
:100730000895CF93DF93D0911401C09115012091BA
:100740008603821B91090E949203ED2FFC2FAF01BB
:10075000495F5F4F2191022E000C330B2817390798
:1007600039F0E417F507B1F780E0DF91CF910895F4
:1007700081E0FBCFAF92BF92CF92DF92EF92FF92D8
:100780000F931F93CF93DF93782F6C018FE0A82EE8
:1007900087E2B82E8FEF9FEFEC2DE71BE61770F581
:1007A000F601A1916F010A2E000CBB0BFD01B4965E
:1007B000A05ABF4FE217F307D4F00E171F07BCF083
:1007C000F7FC03C0EE15FF0591F0EF01C41BD50B3C
:1007D000D7FF03C0D195C195D109CA15DB0564F0D7
:1007E000CA15DB0521F4E817F9070CF4CF013C9694
:1007F000EA17FB07F9F6D0CF5E01F8CF97FF09C0E3
:10080000C901241735070CF4CA01081719070CF49D
:10081000C801DF91CF911F910F91FF90EF90DF9072
:10082000CF90BF90AF9008958F929F92AF92BF925A
:10083000CF92DF92EF92FF920F931F93CF93DF93AC
:100840004C017A018901AA24A394B12C77FF03C03B
:10085000AA24AA94BA2CC82DD92D9CE0C92ED12C3B
:10086000CA0DDB1DCE010E949903811104C081E0F5
:10087000C81AD108A9F7CE15DF051CF00C171D0703
:10088000CCF48CE0C82ED12CE401CA19DB09CE01CE
:100890000E949903882331F0CE15DF051CF00C1758
:1008A0001D0744F481E0C81AD10879F7CE15DF0599
:1008B0000CF4E701CE010C171D070CF4C801DF9101
:1008C000CF911F910F91FF90EF90DF90CF90BF904D
:1008D000AF909F908F900895EF92FF920F931F9388
:1008E000CF93DF93EB018A0179010E9492039C016F
:1008F0002C5D3F4FBC01605A7F4FEFE0F7E28FEF76
:100900009FEF2017310784F0E216F3066CF0A9017F
:100910004C1B5D0B57FF03C05195419551094E1774
:100920005F0714F4FA01C901245F3F4F2617370708
:1009300041F797FF09C0C801C017D1072CF0C701C4
:10094000CE15DF050CF4CE01DF91CF911F910F91F1
:10095000FF90EF9008958F929F92AF92BF92CF92A7
:10096000DF92EF92FF926B017C0120E030E0A90161
:100970000E94341387FD9CC020E030E040E85FE334
:10098000C701B6010E945D14181634F4C12CD12C95
:1009900080E8E82E8FE3F82EC0928103D092820384
:1009A000E0928303F09284032DEC3CEC4CE45FE393
:1009B000C701B6010E9495142AE939E949E15FE3CC
:1009C0000E94C81260936F03709370038093710349
:1009D0009093720320E030E040EC50E4C701B60190
:1009E0000E94951420E030E040E450E40E94C812D8
:1009F0000E9462147093800360937F0320E030E0D4
:100A000040E450E4C701B6010E94951420E030E0B4
:100A100040E050E40E94C8120E9462144B01CB01D6
:100A20006230710514F482E090E090937E0380932D
:100A30007D0320E030E040EE5FE3C701B6010E9495
:100A400095149B01AC0160E070E080E090E40E94AE
:100A5000C71260937303709374038093750390932C
:100A60007603A7019601C701B6010E94C8120E9431
:100A70006214709378036093770320E030E040E8DD
:100A800050E4C701B6010E9495140E94621470934D
:100A90007A036093790390927C0380927B03FF90AA
:100AA000EF90DF90CF90BF90AF909F908F90089580
:100AB000C12CD12C760170CF67E070E00E940E153A
:100AC00097FF03C00796615071092091140130917E
:100AD0001501820F931FFC0120818091860390E015
:100AE000820F911D27FD9A956B5F7F4F4CE0469FCB
:100AF0009001479F300D1124820F931F0895CF92CC
:100B0000DF92EF92FF920F931F93CF93DF936C01CD
:100B1000C8EFDFEF8FE0E82E87E2F82E00E010E06C
:100B2000CE010E945C059C012C193D09121613068A
:100B30001CF09601281B390B2E153F0514F4790182
:100B40008E012196C531D10559F7C801DF91CF91AA
:100B50001F910F91FF90EF90DF90CF900895CF926B
:100B6000DF92EF92FF926091120170E090E080E0DE
:100B70000E94AD1320E030E040E451E40E943913BC
:100B800020916F0330917003409171035091720373
:100B90000E9495146B017C0120E030E040E05FE3AF
:100BA0000E94341387FD18C023E333E343EB5FE374
:100BB000C701B6010E945D1418163CF493E3C92ED8
:100BC000DC2C93EBE92E9FE3F92EC701B601FF90D1
:100BD000EF90DF90CF900895C12CD12CE12C8FE3C2
:100BE000F82EF3CF2AE0EBE1F1E06A3098F4E62F3B
:100BF000F0E0E250FA4F2AE00C9463150806100664
:100C00001306160619061C061F06220625062806C8
:100C1000E5E2F1E0DC0101900D922A95E1F70895FB
:100C2000EFE2F1E0F7CFE9E3F1E0F4CFE3E4F1E064
:100C3000F1CFEDE4F1E0EECFE7E5F1E0EBCFE1E677
:100C4000F1E0E8CFEBE6F1E0E5CFE5E7F1E0E2CF78
:100C5000EFE7F1E0DFCF8F929F92AF92BF92EF92DA
:100C6000FF921F93CF93DF93CDB7DEB728970FB6D0
:100C7000F894DEBF0FBECDBF182F809189019091EF
:100C80008A01A0918B01B0918C018D839E83AF83EB
:100C9000B88780918D0190918E01A0918F01B091C4
:100CA000900189839A83AB83BC830E94AF054B017B
:100CB0005C011C3038F5E12FE370EC0FFD2FF11DC6
:100CC0006581E62E660FFF08B701FF0C880B990BB4
:100CD0000E94AD13A50194010E9495140E94621414
:100CE000CB01029628960FB6F894DEBF0FBECDBF9B
:100CF000DF91CF911F91FF90EF90BF90AF909F90A9
:100D00008F9008951C50FE01E10FF11D6181E62EC8
:100D1000660FFF081230C1F66091790370917A0373
:100D2000072E000C880B990B0E94AD132AE939E9B4
:100D300049E15FE30E9495140E946214E60EF71EDB
:100D4000C3CFCF93DF93FA011082EC0190E0A08132
:100D5000A83068F48991882339F081E08A0F808374
:100D6000A60FB72FB11D9C939F5F903181F78081B3
:100D7000811104C0DB011C9281E08083DF91CF915F
:100D800008958F929F92AF92BF92DF92EF92FF925F
:100D90000F931F93CF93DF93182FD62E49015A013B
:100DA000D11608F441C080E1189FE0011124C3531B
:100DB000DB4F00E08991882379F1802F837061F106
:100DC00068EE73E080E090E00E940B030E94AD1398
:100DD00020E030E04AE754E40E943913A501940171
:100DE0000E94341387FF18C062E070E080E090E05A
:100DF0000E940B03672B682B692B99F46FEF7FEF31
:100E0000FE0182917F0124E530E040E350E090E074
:100E10000E941404F70180830F5F003159F61F5FB1
:100E2000BFCF61E070E0ECCFDF91CF911F910F91C8
:100E3000FF90EF90DF90BF90AF909F908F900895BC
:100E40001F93CF93DF93C82FD42F122F8091860347
:100E5000062E000C770B860F972F911D0E94920390
:100E60002C2F30E0F901112359F0E356FC4F808319
:100E700023573C4FF901D083DF91CF911F91089503
:100E8000E354FC4F808323553C4FF4CFAF92BF9285
:100E9000CF92DF92EF92FF920F931F93CF93DF9346
:100EA000CDB7DEB7E3970FB6F894DEBF0FBECDBF68
:100EB00010928C03109285038A3008F063C1E82FEA
:100EC000F0E0EB59F84F0C9463156F0728083A08C7
:100ED0004E086C087E089608A408B208960887E0B9
:100EE000E1E9F1E0DE015D9601900D928A95E1F76E
:100EF00087E0E8E9F1E0DE01569601900D928A95CF
:100F0000E1F785E1EFE9F1E0DE01119601900D9244
:100F10008A95E1F78E01005D1F4F6E0128E2C20E37
:100F2000D11C5E0134E3A30EB11CF12CE12CEDE1E8
:100F3000F0E0EC0FFD1FEE0DFF1D8081F8018193A5
:100F40008F01E6E1F0E0EC0FFD1FEE0DFF1D80814B
:100F5000F60181936F0163E070E080E090E00E9411
:100F60000B039701220F331FE20EF31E21E030E046
:100F70002C0F3D1FE20EF31EA701460F571FFA016B
:100F8000E0800E2C000CFF08A016B10681F682E06E
:100F90008CA78CA387E08DA781E08DA31EA61EA23F
:100FA0001FA61FA280918503811102C185E992E0ED
:100FB00090931501809314018091860390E00B9625
:100FC0000E9492038093130110E01C3008F0F3C0DC
:100FD000812F8370E82EF12CA8E2B0E0AC0FBD1F8A
:100FE000AE0DBF1DE0E3F0E0EC0FFD1FEE0DFF1DA9
:100FF00020E04C916081812F0E94200780918C031A
:10100000882391F0A1E0B0E0AC0FBD1FAE0DBF1D75
:10101000E6E1F0E0EC0FFD1FEE0DFF1D21E04C912D
:101020006081812F0E9420071F5F103171F6E396C7
:101030000FB6F894DEBF0FBECDBFDF91CF911F91E9
:101040000F91FF90EF90DF90CF90BF90AF900895F9
:1010500025E028AB18A697E099AB81E089A734E09A
:101060003AAB32E03AA749E04BAB3BA72CA71CA216
:101070009DA793CF49E048AB32E038A725E029ABE4
:1010800019A697E09AAB81E08AA71BAA1BA64CA7DA
:101090003CA32DA71DA29EA78EA382CF21E0209363
:1010A0008C0318AA18A639E039AB92E099A785E01D
:1010B0008AAB1AA68BAB1BA647E04E8B298354E064
:1010C0005F8B9A83188E1B82498F2C838CA71CA25E
:1010D0003DA79DA38EA763CF18AA18A627E029AB2A
:1010E00091E099A789E08AAB82E08AA735E03BAB23
:1010F0001BA68CA78CA32DA79DA350CF91E0909306
:10110000850318AA82E088A72AE029AB99A738E0CE
:101110003AAB1AA62BAB9BA71CA68CA335E03DA728
:101120008DA32EA79EA31FA68FA33CCF18AA18A6F7
:1011300097E099AB81E089A729E02AAB22E02AA7B2
:1011400025E02BAB1BA692CF49E048AB32E038A795
:1011500025E029AB19A61AAA1AA697E09BAB81E055
:101160008BA795CF18AA18A695E099AB19A68AE087
:101170008AAB81E08AA728E02BAB1BA69CA71CA208
:1011800097E076CF91E09093850388E088AB18A62E
:1011900035E039AB82E089A71AAA8AA727E02BABF2
:1011A0009BA73CA78CA32DA79DA31EA68EA3BBCF58
:1011B0008EE892E0FDCE84EF810F90E0E4E2F0E073
:1011C000EC0FFD1FE80FF91FF0802CE230E02C0F30
:1011D0003D1F820F931FFC01008120E04F2D602FE7
:1011E000812F0E94200780918C03882309F41CCF53
:1011F00021E04F2D602F15CFCF92DF92EF92FF921B
:101200000F931F93CF93DF9390E0FC01E354FC4FC7
:10121000E080FC01E355FC4FC08020918C03222329
:1012200051F0683040F0FC01E356FC4FE0808357FA
:101230009C4FFC01C0808A01F4E0CF9E6001112424
:10124000D0E0C0E0F12CF601EC0FFD1FE258FD4F9D
:1012500080819701280F311D87FD3A95C9010E94B1
:101260009203F80181938F012196C430D10559F77B
:1012700084E0DF91CF911F910F91FF90EF90DF906D
:10128000CF900895EF92FF920F931F93CF93DF9328
:1012900000D000D0CDB7DEB78B01AE014F5F5F4FFE
:1012A00060E00E94FC08C8010E945C05EE24EA94FC
:1012B000FE2C04E510E020E330E0AC0164E0CE0158
:1012C00001960E94BA030E947F050F900F900F9025
:1012D0000F90DF91CF911F910F91FF90EF900895A4
:1012E00020E1E4EBF1E06A3098F4E62FF0E0E45816
:1012F000F64F20E10C94631586098E099109940933
:1013000097099A099D09A009A309A609E4ECF1E04F
:10131000DC0101900D922A95E1F70895E4EDF1E0EA
:10132000F7CFE4EEF1E0F4CFE4EFF1E0F1CFE4E069
:10133000F2E0EECFE4E1F2E0EBCFE4E2F2E0E8CF7E
:10134000E4E3F2E0E5CFE4E4F2E0E2CFE4E5F2E06A
:10135000DFCF2F923F924F925F926F927F928F9248
:101360009F92AF92BF92CF92DF92EF92FF920F9334
:101370001F93CF93DF93CDB7DEB76F970FB6F89477
:10138000DEBF0FBECDBFB82E8B0160918B03CE01A7
:1013900001960E94700989819A81AB81BC818E8BF4
:1013A0009F8BA88FB98FC0908103D0908203E0906B
:1013B0008303F09084032AE939E949E15EE3C70138
:1013C000B6010E9495142D813E814F8158850E945F
:1013D000C8126A8F7B8F8C8F9D8F2AE939E949E18A
:1013E0005FE3C701B6010E9495149B01AC016AE955
:1013F00079E989E99FE30E94C71229853A854B85DF
:101400005C850E9495146B017C018091770390911B
:101410007803009709F4FBC0029709F4FDC060E06F
:1014200070E080E89FE32D853E854F8558890E94B6
:1014300095142B013C011D8B0C8BC80140961801A3
:10144000D1011D921D01A817B907D1F768EE73E00D
:1014500080E090E00E940B030E94AD1320E030E09A
:101460004AE754E40E943913AA24A394A7019601E1
:101470000E945D1487FDA12CF801A0829801245FD1
:101480003F4F3F8F2E8F480168EE73E080E090E081
:101490000E940B030E94AD1320E030E04AE754E4C1
:1014A0000E943913AA24A394A70196010E945D14F7
:1014B00087FDA12CD4011496AC92B4E08B0E911C44
:1014C000EE8DFF8D8E169F06F9F6780168EE73E0BB
:1014D00080E090E00E940B030E94AD1320E030E01A
:1014E0004AE754E40E9439132E893F89488D598D6B
:1014F0000E943413881F8827881FD70112968C9367
:10150000B4E0EB0EF11CE214F30401F7680168EE9D
:1015100073E080E090E00E940B030E94AD1320E096
:1015200030E04AE754E40E9439132A8D3B8D4C8DFC
:101530005D8D0E943413881F8827881FF6018183E0
:10154000F2E0CF0ED11CCE14DF0409F768EE73E091
:1015500080E090E00E940B030E94AD1320E030E099
:101560004AE754E40E943913A30192010E94341304
:1015700087FF1BC08091640290916502A091660272
:10158000898B9A8BAB8B63E070E080E090E00E94E7
:101590000B036C0F7D1FDB015196EC91E00FF12FD7
:1015A000F11D1082319781E08083B11003C081E08A
:1015B000F801808380E0AC89BD899D91BD8BAC8BA7
:1015C00091118F5FEC89FD89EE16FF06A1F782303D
:1015D00028F481E0D8018C9318968C936F960FB6FF
:1015E000F894DEBF0FBECDBFDF91CF911F910F9159
:1015F000FF90EF90DF90CF90BF90AF909F908F9033
:101600007F906F905F904F903F902F9008956DEC7A
:101610007CEC8CEC9EE307CF6DEC7CEC8CEC9FE3D8
:1016200002CF2F923F924F925F926F927F928F9252
:101630009F92AF92BF92CF92DF92EF92FF920F9361
:101640001F93CF93DF93CDB7DEB76E970FB6F894A5
:10165000DEBF0FBECDBF60918B03CE0141960E94CD
:10166000F2058D899E89AF89B88D8B8F9C8FAD8F48
:10167000BE8F8A8D893008F060C0809311018091FF
:101680001101833018F483E08093110110926703F5
:10169000E0901101E694FF24F39410E000E08091C3
:1016A0001101F81608F068C02F2C312C68EE73E099
:1016B00080E090E00E940B030E94AD1320E030E038
:1016C0004AE754E40E9439134B015C0123E333E3FE
:1016D00043E35FE36B8D7C8D8D8D9E8D0E94951411
:1016E0002B013C01A50194010E945D141816CCF059
:1016F00029893A894B895C89C301B2010E94C812C9
:10170000A50194010E945D141816CCF48FEF9FEF91
:10171000EF1410F081E090E0080F191F0830110558
:1017200044F50B3F9FEF190714F40BEF1FEFF10186
:10173000E959FC4F0083F394B2CF88E09ECFC98C67
:10174000D12C62E070E080E090E00E940B036C0D11
:101750007D1D8FEF9FEFEF1410F081E090E0869FEA
:101760009001879F300D969F300D1124020F131F9B
:10177000D5CF07E010E0DBCFBE016F5F7F4F80E089
:101780000E94A90940E151E06FE573E0CE010196A6
:101790000E94A106BE016F5F7F4F81E00E94A909F0
:1017A0004FE051E067E573E0CE0101960E94A1068B
:1017B0006E960FB6F894DEBF0FBECDBFDF91CF910E
:1017C0001F910F91FF90EF90DF90CF90BF90AF905F
:1017D0009F908F907F906F905F904F903F902F9051
:1017E0000895CF93DF93EC0165E070E080E090E036
:1017F0000E940B038091860390E06230F1F4209107
:1018000085032223B9F023E030E0820F931F0E946A
:1018100092039E01C335D10514F022E530E02E5F1E
:101820003F4FBE016150710940E350E0DF91CF911D
:101830000C946C0424E030E0E8CF633051F7079655
:10184000E6CF2F923F924F925F926F927F928F924C
:101850009F92AF92BF92CF92DF92EF92FF920F933F
:101860001F93CF93DF93CDB7DEB760970FB6F89491
:10187000DEBF0FBECDBF382E7A8769874E83202EFC
:1018800021112DC0209110012D838FE593E02CC0F4
:10189000222029F0C6010E94F10B5C0194C0EE24C5
:1018A000EA94FE2C04E510E020E330E0A50164E0BA
:1018B000CE0101960E94BA037C010E9492032091FE
:1018C00086032817190649F420E330E0A50164E0F7
:1018D000CE0101960E94BA03E0CF570174C0F09187
:1018E0000F01FD8387E593E040E1349E90011124D0
:1018F0003C872B8798878F83512C412C8D81815079
:10190000990B988B8F879D81491608F0B6C0EF819F
:10191000F8851191F887EF832B853C85210F311DC8
:101920003E872D87AE014F5F5F4F612F832D0E9451
:10193000FC0813703E8189859A853230B1F0609140
:101940001101842D0E940215E92FF0E0E959FC4FA6
:101950008081082E000C990B313019F491958195F6
:101960009109E985FA858E0F9F1F0E945C055C0135
:10197000C0900D01D0900E0111111AC0EE24EA940E
:10198000FE2C04E510E020E330E0AC0164E0CE0181
:1019900001960E94BA038C159D0549F4760120E357
:1019A00030E0A50164E0CE0101960E94BA035C011B
:1019B0002F8538892415350531F43E81333009F4FB
:1019C00067CF211067CFC5018535910514F084E5F7
:1019D00090E06C01C0971CF430E3C32ED12C8090B2
:1019E0000D0190900E01A0900B01B0900C01C6016A
:1019F0008819990997FF03C0919581959109A816B7
:101A0000B90674F534016A187B0880E3681671041E
:101A10001CF420E3622E712CA80CB91C95E5A916C4
:101A2000B1041CF094E5A92EB12CEE24EA94FE2C0E
:101A300085019301A60164E0CE0101960E94BA03DC
:101A40008816990661F461E070E08C149D0414F02E
:101A50006FEF7FEF9501A301C4010E9414046C0194
:101A6000ED85FE85E353FB4FC082D0920E01C092FC
:101A70000D01EFEF4E1A5E0A46CF60960FB6F8944E
:101A8000DEBF0FBECDBFDF91CF911F910F91FF90B1
:101A9000EF90DF90CF90BF90AF909F908F907F900E
:101AA0006F905F904F903F902F900895CF92DF926C
:101AB000FF920F931F93CF93DF93CDB7DEB72A9793
:101AC0000FB6F894DEBF0FBECDBFF82E162F042F31
:101AD00060918B03CE0101960E94F2058F2D0E942A
:101AE0002B06BC018F2D0E9442096C01113021F0A0
:101AF000133071F521E017C068EE73E080E090E0EC
:101B00000E940B030E94AD1320E030E04AE754E44A
:101B10000E9439132D813E814F8158850E943413D4
:101B200021E087FD12E0412FB6018F2D0E94210C8C
:101B30002A960FB6F894DEBF0FBECDBFDF91CF91CE
:101B40001F910F91FF90DF90CF90089513E0EBCF9E
:101B500020E0112341F320E01230C1F710E0E3CF81
:101B6000CF92DF92EF92FF920F931F93CF93DF9369
:101B7000CDB7DEB769970FB6F894DEBF0FBECDBF05
:101B80008EE00E94F0112BE0AC01249FC001259F44
:101B9000900D1124892F869586958B3008F06BC1A6
:101BA00080938B038FE00E94F011BC01990F880B8A
:101BB000990B0E94AD1320E030EC4FE754E40E94F3
:101BC00039136093870370938803809389039093FC
:101BD0008A0380E10E94F011BC01990F880B990BD8
:101BE0000E94AD1320E030EC4FE754E40E9439131B
:101BF0006093160170931701809318019093190157
:101C00000E9490116B017C0183E10E94F0118C0114
:101C100081E10E94F0119C01B801110F880B990B12
:101C200056E0660F771F881F991F5A95D1F78901D3
:101C3000330F220B330BECE0000F111F221F331F59
:101C4000EA95D1F760277127822793276C257D2598
:101C50008E259F250E9403031092860385E0E7E608
:101C6000F2E0DE01559601900D928A95E1F765E06C
:101C700070E080E090E00E940B036C0F7D1FDB01A1
:101C800055968C9180931201609116017091170105
:101C900080911801909119010E94AB0480918B03EF
:101CA0000E9446070DEC14E0EDECF3E0CF01A80133
:101CB000DA011D92AD01DC011D92CD01B5E04D3C74
:101CC0005B07B1F730918C034DEB53E08DE993E066
:101CD000DA012D91AD012C5D2083332321F0DC014D
:101CE0002C912C5D208770960196B3E04D3C5B07EC
:101CF00079F70E94110BF0908B036F2DCE010B969C
:101D00000E94F20580917F03909180032B8930E03F
:101D1000220F331F2F5F3F4F2817390754F06F2DC5
:101D2000CE0101960E94F205898590E0880F991FE7
:101D3000019690930C0180930B0180E00E942B068A
:101D4000BC0180E00E9442090E945C0590930E0154
:101D500080930D01F12C40E06F2D8F2D0E94560DC8
:101D6000F394E4E0FE12F7CFEDECF4E0819187AF5D
:101D7000DF0111978C91A058BF4F8C9325E0ED3077
:101D8000F207A1F72DEC3CEC4CE05FE36091870398
:101D9000709188038091890390918A030E94951421
:101DA0009B01AC0167E084E00E94C10626E636E6AE
:101DB00046E65FE360918703709188038091890311
:101DC00090918A030E9495149B01AC016BE088E01E
:101DD0000E94C106EDE8F5E08291882309F44DC028
:101DE00090E090930E0180930D0140E060E08CE064
:101DF0000E94560D40E061E08DE00E94560D40E0EB
:101E000062E08EE00E94560D41E063E08FE00E94A8
:101E1000560D1092560310925503D8018D918D01E5
:101E2000882389F190E00E947E038091BD0390E0B9
:101E300084960E9489038EE68093B4000E948411E8
:101E400068587F4F8F4F9F4F60934B0370934C03A5
:101E500080934D0390934E0369960FB6F894DEBFBE
:101E60000FBECDBFDF91CF911F910F91FF90EF90EB
:101E7000DF90CF9008958AE093CE45E0ED34F407EB
:101E800009F0AACFB2CFB5E00D3C1B0731F6CDCF9C
:101E9000CF92DF92EF92FF928FE00E94F011BC018F
:101EA000990F880B990B0E94AD1320E030EC4FE79F
:101EB00054E40E94391360938703709388038093DE
:101EC000890390938A0380E10E94F011BC01990F6D
:101ED000880B990B0E94AD1320E030EC4FE754E4DF
:101EE0000E943913609316017093170180931801B3
:101EF000909319010E9490116B017C0183E10E9473
:101F0000F011BC01990F880B990B25E0660F771F24
:101F1000881F991F2A95D1F76C257D258E259F2531
:101F20000E940303609116017091170180911801BE
:101F3000909119010E94AB04EDECF4E081918111C4
:101F400009C085E0ED3CF807C9F7FF90EF90DF90FE
:101F5000CF90089520E030E040E05FE36091870398
:101F6000709188038091890390918A030E9495144F
:101F700020E030E040E85EE30E94C8129B01AC0123
:101F80006FE080E00E94C1068EE68093B4000E945C
:101F90008411645C7F4F8F4F9F4F60934B0370930E
:101FA0004C0380934D0390934E03CFCFE0915503A4
:101FB000F0915603E353FB4F8081882331F190E089
:101FC0000E947E0361E082E10E9470120E948411EF
:101FD000665F7F4F8F4F9F4F60934F037093500307
:101FE00080935103909352038EE68093B4000E9435
:101FF0008411665F7F4F8F4F9F4F60934B037093A9
:102000004C0380934D0390934E03E0915503F09160
:102010005603E353FC4F8081882319F090E00E941F
:10202000890380915503909156030196909356032E
:102030008093550380915503909156038F3F9105EE
:1020400029F024F01092560310925503089561E090
:1020500082E10E94341260E082E10E94701262E02C
:1020600084E00E9434120E9435030C94B00DCF928C
:10207000DF92EF92FF920F931F930E9484116B01E6
:102080007C0181E10E94F0112091530330915403AF
:10209000232B09F4A9C08039914024F410925403F1
:1020A0001092530384E00E949E1220910901309106
:1020B0000A012817390761F090930A0180930901FA
:1020C000C0924703D0924803E0924903F0924A033A
:1020D00040914703509148036091490370914A032E
:1020E00097018601041B150B260B370BB901A801BC
:1020F0004A31510561057105C0F1009709F095C09D
:102100008091460381110FC081E0809346031092B5
:102110004503C0924103D0924203E0924303F09200
:10212000440310924003809146038823F1F080918C
:10213000450381111AC08091410390914203A091FF
:102140004303B0914403A7019601281B390B4A0BA6
:102150005B0BDA01C901883E9340A105B10528F067
:102160000E94B00D81E08093450380914F039091D0
:102170005003A0915103B09152030097A105B105FE
:1021800089F0C816D906EA06FB0660F060E082E135
:102190000E94701210924F0310925003109251033C
:1021A0001092520380914B0390914C03A0914D03E8
:1021B000B0914E030097A105B10579F0C816D90674
:1021C000EA06FB0650F01092B40010924B031092F6
:1021D0004C0310924D0310924E031F910F91FF90EC
:1021E000EF90DF90CF900895893592400CF45ACF4C
:1021F00081E090E0909354038093530380914603D1
:10220000882381F08091450381110CC080914003A7
:102210008F5F80934003883028F00E94B00D81E0EA
:10222000809345030E94D60F3DCF019709F09DCFC3
:1022300080914603882309F498CF8091450381114A
:1022400016C08091410390914203A0914303B09145
:10225000440397018601081B190B2A0B3B0BD9017C
:10226000C8018997A105B10510F00E94480F10928E
:1022700046037BCF1F920F920FB60F9211242F931C
:102280003F938F939F93AF93BF938091CE0590918F
:10229000CF05A091D005B091D1053091CD0523E0B7
:1022A000230F2D3758F50196A11DB11D2093CD05A3
:1022B0008093CE059093CF05A093D005B093D10520
:1022C0008091D2059091D305A091D405B091D50508
:1022D0000196A11DB11D8093D2059093D305A093C3
:1022E000D405B093D505BF91AF919F918F913F9148
:1022F0002F910F900FBE0F901F90189526E8230F77
:102300000296A11DB11DD2CF2FB7F8946091CE05D2
:102310007091CF058091D0059091D1052FBF089580
:102320003FB7F8948091D2059091D305A091D40540
:10233000B091D50526B5A89B05C02F3F19F0019691
:10234000A11DB11D3FBFBA2FA92F982F8827BC010F
:10235000CD01620F711D811D911D42E0660F771F37
:10236000881F991F4A95D1F70895789484B58260A3
:1023700084BD84B5816084BD85B5826085BD85B529
:10238000816085BDEEE6F0E0808181608083E1E8D8
:10239000F0E0108280818260808380818160808310
:1023A000E0E8F0E0808181608083E1EBF0E0808113
:1023B00084608083E0EBF0E0808181608083EAE7E5
:1023C000F0E080818460808380818260808380816E
:1023D000816080838081806880831092C10008952D
:1023E0008E3008F08E5020911A0190E4299F9001C0
:1023F00011248770822B80937C0080917A00806406
:1024000080937A0080917A0086FDFCCF80917800DD
:10241000909179000895833081F028F4813099F00B
:102420008230A9F008958730A9F08830C9F084304F
:10243000B1F4809180008F7D03C0809180008F7700
:1024400080938000089584B58F7784BD089584B506
:102450008F7DFBCF8091B0008F778093B00008957F
:102460008091B0008F7DF9CFCF93DF9390E0FC0196
:10247000E358FF4F24918F569F4FFC01849188238E
:10248000C9F090E0880F991FFC01E754FF4FA59118
:10249000B491FC01E155FF4FC591D49161110DC07C
:1024A0009FB7F8948C91209582238C938881282360
:1024B00028839FBFDF91CF910895623051F49FB779
:1024C000F8943C91822F809583238C93E8812E2B66
:1024D000EFCF8FB7F894EC912E2B2C938FBFEACFD0
:1024E0001F93CF93DF93282F30E0F901E759FF4F77
:1024F0008491F901E358FF4FD491F901EF56FF4F52
:10250000C491CC23A9F0162F81110E940B12EC2F3D
:10251000F0E0EE0FFF1FE155FF4FA591B4918FB78B
:10252000F894EC91111108C0D095DE23DC938FBF95
:10253000DF91CF911F910895DE2BF8CFCF93DF93DA
:10254000282F30E0F901E759FF4F8491F901E35852
:10255000FF4FD491F901EF56FF4FC491CC23A1F066
:1025600081110E940B12EC2FF0E0EE0FFF1FEB55D4
:10257000FF4FA591B491EC91ED2381E090E009F437
:1025800080E0DF91CF91089580E090E0FACF50583D
:10259000BB27AA270E94DF120C9423140E94151453
:1025A00038F00E941C1420F039F49F3F19F426F4EF
:1025B0000C9412140EF4E095E7FB0C940C14E92F24
:1025C0000E94341458F3BA176207730784079507FB
:1025D00020F079F4A6F50C9456140EF4E0950B2E29
:1025E000BA2FA02D0B01B90190010C01CA01A00165
:1025F0001124FF27591B99F0593F50F4503E68F1C0
:102600001A16F040A22F232F342F4427585FF3CF00
:10261000469537952795A795F0405395C9F77EF4D1
:102620001F16BA0B620B730B840BBAF09150A1F01A
:10263000FF0FBB1F661F771F881FC2F70EC0BA0FA0
:10264000621F731F841F48F4879577956795B79528
:10265000F7959E3F08F0B0CF9395880F08F0992723
:10266000EE0F9795879508950E94E81308F481E08E
:1026700008950E944D130C9423140E941C1458F0CA
:102680000E94151440F029F45F3F29F00C940C14BB
:1026900051110C9457140C9412140E94341468F3C2
:1026A0009923B1F3552391F3951B550BBB27AA270B
:1026B00062177307840738F09F5F5F4F220F331F45
:1026C000441FAA1FA9F335D00E2E3AF0E0E832D00D
:1026D00091505040E695001CCAF72BD0FE2F29D010
:1026E000660F771F881FBB1F261737074807AB07E2
:1026F000B0E809F0BB0B802DBF01FF2793585F4F57
:102700003AF09E3F510578F00C940C140C94571439
:102710005F3FE4F3983ED4F3869577956795B79538
:10272000F7959F5FC9F7880F911D9695879597F943
:102730000895E1E0660F771F881FBB1F62177307BC
:102740008407BA0720F0621B730B840BBA0BEE1FD1
:1027500088F7E0950895E89409C097FB3EF49095BA
:102760008095709561957F4F8F4F9F4F9923A9F06A
:10277000F92F96E9BB279395F695879577956795F9
:10278000B795F111F8CFFAF4BB0F11F460FF1BC03D
:102790006F5F7F4F8F4F9F4F16C0882311F096E9D0
:1027A00011C0772321F09EE8872F762F05C066237E
:1027B00071F096E8862F70E060E02AF09A95660F37
:1027C000771F881FDAF7880F9695879597F90895F0
:1027D000990F0008550FAA0BE0E8FEEF1616170632
:1027E000E807F907C0F012161306E407F50798F09A
:1027F000621B730B840B950B39F40A2661F0232BB3
:10280000242B252B21F408950A2609F4A140A6952E
:102810008FEF811D811D089597F99F6780E870E013
:1028200060E008959FEF80EC089500240A94161646
:10283000170618060906089500240A9412161306AE
:10284000140605060895092E0394000C11F488233C
:1028500052F0BB0F40F4BF2B11F460FF04C06F5F58
:102860007F4F8F4F9F4F089557FD9058440F551F2E
:1028700059F05F3F71F04795880F97FB991F61F002
:102880009F3F79F087950895121613061406551F79
:10289000F2CF4695F1DF08C0161617061806991FE5
:1028A000F1CF86957105610508940895E894BB27DA
:1028B00066277727CB0197F908950E94E81308F45B
:1028C0008FEF08950E943C1458F19E5760F1985183
:1028D000A0F0E9F0983020F5092E9927660F771FB0
:1028E000881F991F0A94D1F712C0062E672F782FE0
:1028F0008827985F11F4000C07C0993FB4F38695C0
:10290000779567959395D9F7611D711D811D3EF4EB
:1029100090958095709561957F4F8F4F9F4F08954B
:1029200068940C9457140C9456140E94A8140C9498
:1029300023140E94151438F00E941C1420F09523D3
:1029400011F00C940C140C94121411240C945714C0
:102950000E94341470F3959FC1F3950F50E0551FFA
:10296000629FF001729FBB27F00DB11D639FAA27E4
:10297000F00DB11DAA1F649F6627B00DA11D661F33
:10298000829F2227B00DA11D621F739FB00DA11D54
:10299000621F839FA00D611D221F749F3327A00D0E
:1029A000611D231F849F600D211D822F762F6A2FAA
:1029B00011249F5750409AF0F1F088234AF0EE0F0F
:1029C000FF1FBB1F661F771F881F91505040A9F73C
:1029D0009E3F510580F00C940C140C9457145F3FEB
:1029E000E4F3983ED4F3869577956795B795F79578
:1029F000E7959F5FC1F7FE2B880F911D96958795F0
:102A000097F90895991B79E004C0991F961708F06B
:102A1000961B881F7A95C9F78095089597FB072E16
:102A200016F4009407D077FD09D00E947C1507FCAE
:102A300005D03EF4909581959F4F089570956195CE
:102A40007F4F0895A1E21A2EAA1BBB1BFD010DC0EA
:102A5000AA1FBB1FEE1FFF1FA217B307E407F5074E
:102A600020F0A21BB30BE40BF50B661F771F881F2A
:102A7000991F1A9469F760957095809590959B01C0
:102A8000AC01BD01CF010895052E97FB1EF4009403
:102A90000E945B1557FD07D00E94221507FC03D04A
:102AA0004EF40C945B1550954095309521953F4F11
:102AB0004F4F5F4F089590958095709561957F4F2A
:102AC0008F4F9F4F0895EE0FFF1F0590F491E02D5B
:102AD00009940E949015A59F900DB49F900DA49FFE
:102AE000800D911D11240895B7FF0C9469150E9463
:102AF0006915821B930B0895AA1BBB1B51E107C0EC
:102B0000AA1FBB1FA617B70710F0A61BB70B881F7D
:102B1000991F5A95A9F780959095BC01CD0108950C
:102B2000A29FB001B39FC001A39F700D811D11240E
:102B3000911DB29F700D811D1124911D08958F92DA
:102B40009F92AF92BF92CF92DF92EF92FF92CF937C
:102B5000DF93EC01688179818A819B816115710520
:102B60008105910521F464E279ED8BE597E02DE193
:102B700033EF41E050E00E94441549015A019B01A6
:102B8000AC01A7EAB1E40E9469156B017C01ACEECF
:102B9000B4EFA50194010E947715C60ED71EE81E5A
:102BA000F91EF7FE06C081E0C81AD108E10880E8E6
:102BB000F80AC882D982EA82FB82C701B6019F77F0
:102BC000DF91CF91FF90EF90DF90CF90BF90AF90CB
:102BD0009F908F9008958F929F92AF92BF92CF92C5
:102BE000DF92EF92FF92609100017091010180915C
:102BF000020190910301611571058105910521F490
:102C000064E279ED8BE597E02DE133EF41E050E0B0
:102C10000E94441549015A019B01AC01A7EAB1E4A5
:102C20000E9469156B017C01ACEEB4EFA501940123
:102C30000E947715C60ED71EE81EF91EF7FE06C0C5
:102C400081E0C81AD108E10880E8F80AC0920001C2
:102C5000D0920101E0920201F0920301C701B60196
:102C60009F77FF90EF90DF90CF90BF90AF909F90B5
:102C70008F90089560930001709301018093020189
:0A2C8000909303010895F894FFCF2C
:102C8A0001000000FFB402B4020100070040000482
:102C9A0004040C0B95020000003F013333333F3329
:102CAA0033B33E02069A99193F9A99193E0304854D
:102CBA00EB513FCDCCCC3D0204CDCC0C3FCDCC4C1E
:102CCA003E03040000803ECDCC4C3D0306000000CC
:102CDA003FCDCCCC3D04043333333F6666E63E0237
:102CEA0005E17A143FCDCC4C3D04050000403F334A
:102CFA0033B33E02066666E63ECDCC4C3E0405CDB5
:102D0A00CCCC3E9A99193E0305000201FF02040643
:102D1A00000002040507090B000202000102030178
:102D2A000305040604030505040100000500010368
:102D3A00010002003333333F3333B33ECDCCCC3DB5
:102D4A00CDCCCC3E0000003F9A99193E0000803E4F
:102D5A009A99993E6666E63ECDCCCC3D3333B33E76
:102D6A000000803E0000003F9A99193E9A99993EC8
:102D7A009A99993E3333333FCDCCCC3DCDCCCC3D23
:102D8A00CDCC4C3ECDCCCC3E9A99193E6666E63EF9
:102D9A00CDCCCC3E9A99193F6666E63ECDCC4C3DE9
:102DAA000000003FCDCC0C3FCDCCCC3D9A99993E4A
:102DBA009A99193ECDCC0C3F0000003F9A99193ED2
:102DCA009A99193F0000003F6666E63ECDCC4C3E1C
:102DDA009A99193F9A99193F9A99993E9A99193E3F
:102DEA003333B33E04080C0A0C0E10120000000024
:102DFA001A01F601BB00FA008D00A7009900000431
:102E0A00070B0004070A0003070A0003060A000268
:0C2E1A00030507080A0002040507090B65
:00000001FF
